:100000000C9462000C948A000C948A000C948A0070
:100010000C948A000C948A000C948A000C948A0038
:100020000C948A000C948A000C948A000C948A0028
:100030000C948A000C948A000C948A000C948A0018
:100040000C9440060C948A000C94B0060C948A061A
:100050000C948A000C948A000C948A000C948A00F8
:100060000C948A000C948A000000000024002700F1
:100070002A0000000000250028002B0000000000DE
:1000800023002600290004040404040404040202DA
:100090000202020203030303030301020408102007
:1000A0004080010204081020010204081020000012
:1000B0000008000201000003040700000000000027
:1000C00000007F0711241FBECFEFD8E0DEBFCDBFF9
:1000D00011E0A0E0B1E0E2E7FFE002C005900D9280
:1000E000A232B107D9F721E0A2E2B1E001C01D922E
:1000F000A83CB207E1F710E0C2E6D0E004C02197C7
:10010000FE010E94AC07C136D107C9F70E94E20682
:100110000C94B7070C940000833081F028F48130F0
:1001200099F08230A1F008958730A9F08830B9F0B5
:100130008430D1F4809180008F7D03C08091800055
:100140008F7780938000089584B58F7702C084B53F
:100150008F7D84BD08958091B0008F7703C080911A
:10016000B0008F7D8093B0000895CF93DF93282F48
:1001700030E0F901E255FF4F8491F901E656FF4F57
:10018000D491F901EA57FF4FC491CC2391F081112A
:100190000E948C00EC2FF0E0EE0FFF1FE458FF4FA1
:1001A000A591B491EC91ED2381E090E021F480E001
:1001B00002C080E090E0DF91CF9108951F93CF932C
:1001C000DF93282F30E0F901E255FF4F8491F901C8
:1001D000E656FF4FD491F901EA57FF4FC491CC2363
:1001E000C1F0162F81110E948C00EC2FF0E0EE0F71
:1001F000FF1FEE58FF4FA591B4919FB7F8941111CE
:1002000004C08C91D095D82302C0EC91DE2BDC93F6
:100210009FBFDF91CF911F910895CF93DF9390E01F
:10022000FC01E656FF4F2491FC01EA57FF4F8491F1
:10023000882361F190E0880F991FFC01E859FF4F76
:10024000C591D491FC01EE58FF4FA591B491611175
:1002500009C09FB7F8948881209582238883EC9108
:100260002E230BC0623061F49FB7F8948881322F3F
:10027000309583238883EC912E2B2C939FBF06C04F
:100280008FB7F894E8812E2B28838FBFDF91CF9111
:1002900008953FB7F8948091270190912801A0918B
:1002A0002901B0912A0126B5A89B05C02F3F19F05E
:1002B0000196A11DB11D3FBFBA2FA92F982F8827E6
:1002C000820F911DA11DB11DBC01CD0142E0660F41
:1002D000771F881F991F4A95D1F708958F929F9293
:1002E000AF92BF92CF92DF92EF92FF926B017C01AF
:1002F0000E9449014B015C01C114D104E104F104E5
:10030000F1F00E944901DC01CB0188199909AA0981
:10031000BB09883E9340A105B10570F321E0C21AE4
:10032000D108E108F10888EE880E83E0981EA11C30
:10033000B11CC114D104E104F10419F7DDCFFF9021
:10034000EF90DF90CF90BF90AF909F908F900895E7
:10035000CF92DF92EF92FF920F931F93CF93DF9391
:100360006C017A018B01C0E0D0E0CE15DF0581F091
:10037000D8016D918D01D601ED91FC910190F08134
:10038000E02DC6010995892B11F02196EECF7E0153
:10039000C701DF91CF911F910F91FF90EF90DF90F8
:1003A000CF900895089580E090E00895FC01538D6A
:1003B000448D252F30E0842F90E0821B930B54173F
:1003C00010F0CF96089501970895FC01918D828DCC
:1003D000981761F0828DDF01A80FB11D5D968C9199
:1003E000928D9F5F9F73928F90E008958FEF9FEFA4
:1003F0000895FC01918D828D981731F0828DE80F60
:10040000F11D858D90E008958FEF9FEF0895FC0119
:10041000918D228D892F90E0805C9F4F821B9109E6
:100420008F73992708958BE291E00E94070221E0E3
:10043000892B09F420E0822F0895FC01848DDF01CF
:10044000A80FB11DA35ABF4F2C91848D90E0019647
:100450008F739927848FA689B7892C93A089B18936
:100460008C91837080648C93938D848D981306C0D7
:100470000288F389E02D80818F7D80830895EF923B
:10048000FF920F931F93CF93DF93EC0181E0888F4E
:100490009B8D8C8D981305C0E889F989808185FD35
:1004A00026C0F62E0B8D10E00F5F1F4F0F73112724
:1004B000E02E8C8DE8120CC00FB607FCFACFE8894D
:1004C000F989808185FFF5CFCE010E941D02F1CF11
:1004D0008B8DFE01E80FF11DE35AFF4FF0829FB7AD
:1004E000F8940B8FEA89FB89808180620AC09FB7EC
:1004F000F894EE89FF896083E889F98980818370A7
:10050000806480839FBF81E090E0DF91CF911F9155
:100510000F91FF90EF900895682F8BE291E00C947B
:100520003F02CF93DF93EC01888D8823C9F0EA89DD
:10053000FB89808185FD05C0A889B9898C9186FDDC
:100540000FC00FB607FCF5CF808185FFF2CFA889D9
:10055000B9898C9185FFEDCFCE010E941D02E7CFB6
:10056000DF91CF91089580E090E0892B29F00E94DF
:10057000130281110C940000089560E086E00E944F
:10058000DE0060E085E00E94DE0060E084E00E9422
:10059000DE006AE070E080E090E00E946E0161E0C1
:1005A00084E00E94DE006AE070E080E090E00C945D
:1005B0006E0160E086E00E94DE0060E085E00E945F
:1005C000DE0060E084E00E94DE006AE070E080E02F
:1005D00090E00E946E0161E085E00E94DE006AE02A
:1005E00070E080E090E00E946E0160E085E00E9493
:1005F000DE006AE070E080E090E00E946E0161E061
:1006000085E00E94DE006AE070E080E090E00E94F9
:100610006E0160E085E00E94DE006AE070E080E04C
:1006200090E00E946E0161E084E00E94DE006AE0DA
:1006300070E080E090E00C946E01CF93DF93D8E0FF
:10064000C0E061E085E00E94DE00CC0F86E00E9401
:10065000B500019709F4C16060E085E00E94DE000A
:10066000D15079F78C2FDF91CF910895CF93DF93FD
:10067000C0E0D0E086E00E94B500019739F4C031B7
:10068000D10521F00E941D032196F4CF81E06097EF
:1006900009F480E0DF91CF910895CF93DF93D82FB5
:1006A000C8E061E085E00E94DE00D7FF02C061E0A3
:1006B00001C060E086E00E94DE00DD0F60E085E0C2
:1006C0000E94DE00C15069F7DF91CF910895EF924B
:1006D000FF920F931F93CF93DF93C82F7B018A0163
:1006E00061E086E00E940D018C2F0E944D03E7011E
:1006F0000E0D1F1DC017D10721F089910E944D03D7
:10070000F9CF60E086E00E940D0161E086E00E9482
:10071000DE000E9436030E941D03C82F61E086E0C0
:100720000E940D018C2FDF91CF911F910F91FF90AF
:10073000EF900895CF93DF9300D01F92CDB7DEB72F
:1007400020E929839A838B8343E050E0BE016F5FE9
:100750007F4F87E50E94670380EE898341E050E088
:10076000BE016F5F7F4F85E50E9467030F900F907A
:100770000F90DF91CF9108951F93CF93DF9300D017
:100780001F92CDB7DEB7162F20E929839A838B837A
:1007900043E050E0BE016F5F7F4F87E50E94670333
:1007A00084E789831A8342E050E0BE016F5F7F4F88
:1007B00086E50E94670380EF898341E050E0BE0137
:1007C0006F5F7F4F85E50E9467030F900F900F903A
:1007D000DF91CF911F910895BF92CF92DF92EF9258
:1007E000FF920F931F93CF93DF9300D01F92CDB74B
:1007F000DEB76B017A0120E929839A838B8343E07A
:1008000050E0BE016F5F7F4F87E50E94670386015E
:10081000EC0CFD1C84E7B82E90EFC92E23EAD22EF3
:100820000E151F0501F1B982F80181918F018A83AC
:1008300042E050E0BE016F5F7F4F86E50E94670394
:10084000C98241E050E0BE016F5F7F4F85E50E94A5
:100850006703D98241E050E0BE016F5F7F4F85E5BD
:100860000E946703DDCF0F900F900F90DF91CF9123
:100870001F910F91FF90EF90DF90CF90BF90089560
:10088000CF93DF931F92CDB7DEB740E050E060E03A
:1008900070E080E10E94670340E050E060E070E0BB
:1008A00080E30E9467038983898187FDF5CF0F90DC
:1008B000DF91CF9108952F923F924F925F926F9266
:1008C0007F928F929F92AF92BF92CF92DF92EF92E0
:1008D000FF920F931F93CF93DF93CDB7DEB7C65030
:1008E000D4400FB6F894DEBF0FBECDBFCA5FDB4F5A
:1008F0001882C650D4408BE291E00E940702029712
:10090000D1F78BE291E00E94E501019741F58BE27E
:1009100091E00E94E501482E0E94D90261E086E044
:100920000E940D0161E070E080E090E00E946E01A5
:1009300088E60E944D0360E086E00E940D0161E0C0
:1009400086E00E94DE0061E070E080E090E00E94BE
:100950006E010E943603813039F010E00AC08BE24C
:1009600091E00E94E501C7CF0E941D03182F0E944D
:100970001D0361E086E00E940D01111105C085E0B4
:1009800090E00E948C0260C10E94BD020E94D902C8
:100990000E9440040E94BD020E94D90260E886ECD9
:1009A00090E70E94BC038EE990E70E949A0380388A
:1009B000D1F782E2CA5FDB4F8883C650D44041E062
:1009C00050E0BE016A5F7B4F89E10E94670383E0CC
:1009D00090E00E948C0261E08DE00E94DE00E12C3C
:1009E000F12CA12CB12C912C6E018FEFC81A8DEF38
:1009F000D80A8E010D5F1B4F40EE342E512C33EA86
:100A0000232E8BE291E00E940702892B49F45520A6
:100A1000A9F360E08DE00E94DE000E94BD0214C1D7
:100A20008BE291E00E94E501992021F091E0991676
:100A300059F0E7CF823019F499249394E2CF8430AF
:100A400001F755245394DDCFE1E0F0E0EC0FFD1FFA
:100A5000EA0DFB1D8083EFEFAE1ABE0AF2E0AF167F
:100A6000BF0679F6CE0101963C01FC0120E030E0A2
:100A70008191280F311DCE16DF06D1F7F601808156
:100A800091819827892798272817390709F0C7C027
:100A900048E050E068E071E080E092E00E94EC0302
:100AA00048E050E060E071E088E092E00E94EC03F2
:100AB000F2E0CD5FDD4FF883C350D240CC5FDD4F15
:100AC0001882C450D24042E050E0BE016D5F7D4FBD
:100AD00084E092E00E94EC0342E050E0BE016D5FD2
:100AE0007D4F8CE092E00E94EC0362E085ED90E7A0
:100AF0000E94BC0360E084ED90E70E94BC0362E0CA
:100B000083ED90E70E94BC0368E082ED90E70E94CD
:100B1000BC036F2D82E792E60E94BC036E2D81E735
:100B200092E60E94BC0361E086ED90E70E94BC0360
:100B300061E086E00E940D0182E80E944D0380E0A2
:100B40000E944D03CE0101965C01F50181915F0188
:100B50000E944D03CA14DB04C1F760E086E00E94E6
:100B60000D0161E086E00E94DE000E9436030E94D3
:100B70001D0361E086E00E940D0162E086ED90E7D2
:100B80000E94BC036AE080E792E60E94BC0380E713
:100B900092E60E949A0387FDFACF442009F449C0E7
:100BA000B701672F772762956695677087EC90E7A6
:100BB0000E94BC0380E9F8018083C7019F71880F00
:100BC000991F880F991F90589183128243E050E03B
:100BD000B80187E50E946703CE018D5F9D4F5C01E0
:100BE0004C01F801308241E050E0B80185E50E94F7
:100BF0006703F40181934F01F801208241E050E046
:100C0000B80185E50E9467030815190551F7F5013C
:100C100091915F01F30181913F01981739F085E0CF
:100C200090E00E948C020E9440040EC00A151B0531
:100C300071F7F0E8EF0EF11C83E090E00E948C0267
:100C4000A12CB12C912CDDCECA5FDB4F0FB6F894EE
:100C5000DEBF0FBECDBFDF91CF911F910F91FF90EF
:100C6000EF90DF90CF90BF90AF909F908F907F904C
:100C70006F905F904F903F902F9008950E94B20721
:100C80001F920F920FB60F9211242F933F938F93C1
:100C90009F93AF93BF938091230190912401A091E2
:100CA0002501B09126013091220123E0230F2D3739
:100CB00020F40196A11DB11D05C026E8230F029660
:100CC000A11DB11D20932201809323019093240143
:100CD000A0932501B09326018091270190912801CE
:100CE000A0912901B0912A010196A11DB11D809307
:100CF000270190932801A0932901B0932A01BF9165
:100D0000AF919F918F913F912F910F900FBE0F90B8
:100D10001F9018951F920F920FB60F9211242F93C8
:100D20003F934F935F936F937F938F939F93AF9373
:100D3000BF93EF93FF938BE291E00E941D02FF911E
:100D4000EF91BF91AF919F918F917F916F915F9143
:100D50004F913F912F910F900FBE0F901F901895BC
:100D60001F920F920FB60F9211242F938F939F9380
:100D7000EF93FF93E0913B01F0913C018081E09182
:100D80004101F091420182FD12C0908180914401A5
:100D90008F5F8F7320914501821751F0E0914401DC
:100DA000F0E0E55DFE4F958F8093440101C08081A6
:100DB000FF91EF919F918F912F910F900FBE0F9008
:100DC0001F901895789484B5826084BD84B5816045
:100DD00084BD85B5826085BD85B5816085BD809106
:100DE0006E00816080936E0010928100809181007E
:100DF0008260809381008091810081608093810076
:100E0000809180008160809380008091B100846037
:100E10008093B1008091B00081608093B000809198
:100E20007A00846080937A0080917A008260809357
:100E30007A0080917A00816080937A0080917A00B4
:100E4000806880937A001092C10061E086E00E9481
:100E50000D0161E085E00E940D0161E084E00E94E7
:100E60000D0161E08DE00E940D0160E086E00E94CE
:100E7000DE0060E085E00E94DE0061E084E00E9428
:100E8000DE0060E08DE00E94DE00E0913B01F09129
:100E90003C0182E08083E0913701F09138011082BB
:100EA000E0913901F0913A0180E180831092430191
:100EB000E0913F01F091400186E08083E0913D01A7
:100EC000F0913E01808180618083E0913D01F0914D
:100ED0003E01808188608083E0913D01F0913E0178
:100EE000808180688083E0913D01F0913E018081A6
:100EF0008F7D80830E945B040E94B302FBCFEBE2F4
:100F0000F1E01382128288EE93E0A0E0B0E08483E7
:100F10009583A683B78384E191E09183808385ECF8
:100F200090E09587848784EC90E09787868780ECB3
:100F300090E0918B808B81EC90E0938B828B82ECA4
:100F400090E0958B848B86EC90E0978B868B118E4E
:100F5000128E138E148E0895EE0FFF1F0590F491DC
:100F6000E02D099481E090E0F8940C94B707F89490
:020F7000FFCFB1
:100F720000006273000012426260000000001F1154
:100F8200000000003F02A801D60191020702E5011C
:020F9200F90163
:107E0000112484B714BE81FFF0D085E080938100F7
:107E100082E08093C00088E18093C10086E0809377
:107E2000C20080E18093C4008EE0C9D0259A86E02C
:107E300020E33CEF91E0309385002093840096BBD3
:107E4000B09BFECF1D9AA8958150A9F7CC24DD24C4
:107E500088248394B5E0AB2EA1E19A2EF3E0BF2EE7
:107E6000A2D0813461F49FD0082FAFD0023811F036
:107E7000013811F484E001C083E08DD089C08234E0
:107E800011F484E103C0853419F485E0A6D080C0E4
:107E9000853579F488D0E82EFF2485D0082F10E0AE
:107EA000102F00270E291F29000F111F8ED06801E7
:107EB0006FC0863521F484E090D080E0DECF843638
:107EC00009F040C070D06FD0082F6DD080E0C81688
:107ED00080E7D80618F4F601B7BEE895C0E0D1E017
:107EE00062D089930C17E1F7F0E0CF16F0E7DF06D8
:107EF00018F0F601B7BEE89568D007B600FCFDCFD4
:107F0000A601A0E0B1E02C9130E011968C91119780
:107F100090E0982F8827822B932B1296FA010C0160
:107F200087BEE89511244E5F5F4FF1E0A038BF0790
:107F300051F7F601A7BEE89507B600FCFDCF97BE46
:107F4000E89526C08437B1F42ED02DD0F82E2BD052
:107F50003CD0F601EF2C8F010F5F1F4F84911BD097
:107F6000EA94F801C1F70894C11CD11CFA94CF0C13
:107F7000D11C0EC0853739F428D08EE10CD085E9AC
:107F80000AD08FE07ACF813511F488E018D01DD067
:107F900080E101D065CF982F8091C00085FFFCCF94
:107FA0009093C60008958091C00087FFFCCF809118
:107FB000C00084FD01C0A8958091C6000895E0E648
:107FC000F0E098E1908380830895EDDF803219F02E
:107FD00088E0F5DFFFCF84E1DECF1F93182FE3DFCA
:107FE0001150E9F7F2DF1F91089580E0E8DFEE27F6
:047FF000FF270994CA
:027FFE00040479
:0400000300007E007B
:00000001FF
