:100000000C945E000C9486000C9486000C94860080
:100010000C9486000C9486000C9486000C94860048
:100020000C9486000C9486000C941D030C94C7035A
:100030000C94D6020C9486000C9486000C948600D6
:100040000C9434020C9486000C94A4020C947E024E
:100050000C9486000C9486000C9486000C94860008
:100060000C9486000C948600000000080002010039
:100070000003040700000000000000000000000072
:10008000250028002B0000000000240027002A0083
:10009000040404040404040402020202020203032E
:1000A0000303030301020408102040800102040836
:1000B00010200102040810206004370611241FBE1E
:1000C000CFEFD8E0DEBFCDBF11E0A0E0B1E0EEE1C0
:1000D000FDE002C005900D92A43CB107D9F723E0E2
:1000E000A4ECB1E001C01D92AA31B207E1F710E023
:1000F000CDE5D0E004C02197FE010E947706CC3503
:10010000D107C9F70E9499040C9482060C94000050
:10011000CF92DF92EF92FF920F931F93CF93DF93D3
:100120006C017A018B01C0E0D0E0CE15DF0581F0D3
:10013000D8016D918D01D601ED91FC910190F08176
:10014000E02DC6010995892B11F02196EECF7E0195
:10015000C701DF91CF911F910F91FF90EF90DF903A
:10016000CF900895FC01538D448D252F30E0842FCE
:1001700090E0821B930B541710F0CF9608950197CF
:100180000895FC01918D828D981761F0828DDF01B9
:10019000A80FB11D5D968C91928D9F5F9F73928F7A
:1001A00090E008958FEF9FEF0895FC01918D828D6F
:1001B000981731F0828DE80FF11D858D90E008953C
:1001C0008FEF9FEF0895FC01918D228D892F90E094
:1001D000805C9F4F821B91098F739927089581E757
:1001E00092E00E94E30021E0892B09F420E0822FB5
:1001F0000895FC01848DDF01A80FB11DA35ABF4FE4
:100200002C91848D90E001968F739927848FA68915
:10021000B7892C93A089B1898C91837080648C9369
:10022000938D848D981306C00288F389E02D808118
:100230008F7D80830895EF92FF920F931F93CF934A
:10024000DF93EC0181E0888F9B8D8C8D981305C026
:10025000E889F989808185FD26C0F62E0B8D10E096
:100260000F5F1F4F0F731127E02E8C8DE8120CC00B
:100270000FB607FCFACFE889F989808185FFF5CFB1
:10028000CE010E94F900F1CF8B8DFE01E80FF11D28
:10029000E35AFF4FF0829FB7F8940B8FEA89FB89EE
:1002A000808180620AC09FB7F894EE89FF896083DD
:1002B000E889F98980818370806480839FBF81E0B1
:1002C00090E0DF91CF911F910F91FF90EF900895F3
:1002D000CF93DF93EC01888D8823C9F0EA89FB89ED
:1002E000808185FD05C0A889B9898C9186FD0FC0E4
:1002F0000FB607FCF5CF808185FFF2CFA889B989B9
:100300008C9185FFEDCFCE010E94F900E7CFDF9100
:10031000CF91089580E090E0892B29F00E94EF00B2
:1003200081110C9400000895509162024091610285
:10033000852F90E0242F30E0541710F4805B9F4FFE
:10034000821B930B089580916202E09161028E17E7
:1003500051F0EF5FE03508F0E0E0F0E0E25FFD4FE4
:10036000808190E008958FEF9FEF08958091620261
:1003700090916102891769F09F5F903508F090E0D5
:10038000E92FF0E0E25FFD4F80819093610290E001
:1003900008958FEF9FEF089590915F029F5F9434CF
:1003A00008F090E020915E022917E1F32FB7F8944E
:1003B00030916002332341F0E92FF0E0EC53FE4F1F
:1003C000808390935F021DC091E0909360028093C0
:1003D00009021092080282E086BB80916F00826061
:1003E00080936F00809180008F7B80688093800075
:1003F000809184009091850040969093890080932D
:1004000088002FBF0895809160028111FCCF08956C
:10041000862F0E94CC0181E090E00895089580E04D
:1004200090E00895009769F0FC0101900020E9F741
:100430003197AF01481B590BBC0181E792E00C9446
:10044000880080E090E00895CF93DF930E9412022D
:10045000EC0186E291E00E9412028C0F9D1FDF9159
:10046000CF9108950E947D061F920F920FB60F92B2
:1004700011242F933F938F939F93AF93BF938091BA
:100480006D0290916E02A0916F02B0917002309156
:100490006C0223E0230F2D3720F40196A11DB11D1E
:1004A00005C026E8230F0296A11DB11D20936C0202
:1004B00080936D0290936E02A0936F02B0937002CE
:1004C0008091680290916902A0916A02B0916B02DA
:1004D0000196A11DB11D8093680290936902A093BB
:1004E0006A02B0936B02BF91AF919F918F913F9140
:1004F0002F910F900FBE0F901F9018951F920F9283
:100500000FB60F9211242F933F934F935F936F93E6
:100510007F938F939F93AF93BF93EF93FF9381E765
:1005200092E00E94F900FF91EF91BF91AF919F91EE
:100530008F917F916F915F914F913F912F910F908C
:100540000FBE0F901F9018951F920F920FB60F922B
:1005500011242F938F939F93EF93FF93E091810248
:10056000F09182028081E0918702F091880282FD01
:1005700012C0908180918A028F5F8F7320918B02CD
:10058000821751F0E0918A02F0E0EF58FD4F958F0D
:1005900080938A0201C08081FF91EF919F918F919A
:1005A0002F910F900FBE0F901F9018951F920F92D2
:1005B0000FB60F9211242F938F939F93EF93FF9376
:1005C00080916F008B7F80936F00809181008F7B83
:1005D000809381008091630220910D0220589091B8
:1005E0000C02893020F49695922B8F5FFACF90936E
:1005F0000C02809162028F5F803508F080E02091CC
:100600006102821739F0E82FF0E0E25FFD4F90833E
:100610008093620210926302809181008F7B8093AD
:10062000810010920D02FF91EF919F918F912F9178
:100630000F900FBE0F901F9018951F920F920FB63C
:100640000F9211242F933F934F935F936F937F9358
:100650008F939F93AF93BF93EF93FF938091860007
:100660009091870040910D0220918100442331F048
:100670002F7B2093810010920D0206C020642093EE
:10068000810020E820930D0230916302311125C0D2
:1006900041116CC02091640230916502280F391F0E
:1006A00030938B0020938A0024E026BB20916F00BA
:1006B000246020936F002091660230916702820FC0
:1006C000931F36952795820F931F90930B0280936B
:1006D0000A0281E08093630249C040910A0250916E
:1006E0000B026091660270916702DB01A095B095E4
:1006F00020910C02E0910D02841B950BA817B907FD
:1007000068F126952E2B460F571F3F5F861B970BD0
:100710003930A0F320930C0280916F008B7F80937F
:100720006F00809162028F5F803508F080E09091C9
:100730006102891749F0E82FF0E090910C02E25F26
:10074000FD4F908380936202809181008F7B809324
:10075000810010920D021092630208C020930C02D7
:1007600050930B0240930A0230936302FF91EF9182
:10077000BF91AF919F918F917F916F915F914F91B9
:100780003F912F910F900FBE0F901F9018951F92C1
:100790000F920FB60F9211242F933F934F935F93B5
:1007A0006F937F938F939F93EF93FF93809160025A
:1007B0006091090220918800309189004091660281
:1007C00050916702909108028A30F8F4240F351F87
:1007D000893019F0762F717001C071E066958F5FD6
:1007E000791791F390918000772311F0906C02C0FB
:1007F0009F7B9068909380003093890020938800BD
:1008000070930802609309024AC090915F02E091E0
:100810005E029E1319C08A3051F48BE0809360020F
:10082000240F351F30938900209388003AC010921E
:100830006002809180008F738093800080916F00B0
:100840008D7F80936F002DC0EF5FE43408F0E0E00F
:10085000E0935E02F0E0EC53FE4F9081909309022A
:1008600010920802909180009F7B90689093800086
:100870008A3059F48091660290916702280F391FDF
:10088000309389002093880009C080918400909162
:1008900085004096909389008093880081E0809342
:1008A0006002FF91EF919F918F917F916F915F9186
:1008B0004F913F912F910F900FBE0F901F90189561
:1008C000E1E7F2E01382128288EE93E0A0E0B0E06C
:1008D00084839583A683B78326E031E03183208328
:1008E00025EC30E03587248724EC30E037872687F5
:1008F00020EC30E0318B208B21EC30E0338B228BED
:1009000022EC30E0358B248B26EC30E0378B268BC5
:10091000118E128E138E148EEEE0F3E0138212828B
:1009200084839583A683B78388E191E09183808354
:100930000895CF93DF93CDB7DEB7A1970FB6F894A4
:10094000DEBF0FBECDBF789484B5826084BD84B510
:10095000816084BD85B5826085BD85B5816085BDBA
:1009600080916E00816080936E0010928100809172
:1009700081008260809381008091810081608093FA
:100980008100809180008160809380008091B1001F
:1009900084608093B1008091B00081608093B0004A
:1009A00080917A00846080937A0080917A008260DE
:1009B00080937A0080917A00816080937A008091A0
:1009C0007A00806880937A001092C100E0918102E1
:1009D000F091820282E08083E0917D02F0917E02BC
:1009E0001082E0917F02F09180028FEC8083109260
:1009F0008902E0918502F091860286E08083E09191
:100A00008302F0918402808180618083E09183027F
:100A1000F0918402808188608083E0918302F0916C
:100A20008402808180688083E0918302F091840257
:100A300080818F7D808389E291E00E94120284E3AD
:100A400091E00E94240284E991E00E9412028FE961
:100A500091E00E94240282E391E00E94240210921D
:100A60006F001092800081E88093810083E896E017
:100A700090936702809366028BE39CE390936502F8
:100A800080936402ECEAF0E02491E8E9F0E08491DC
:100A90008823C9F090E0880F991FFC01EA57FF4FA7
:100AA00045915491FC01E458FF4FA591B4919FB733
:100AB000F894FA018081322F309583238083EC9162
:100AC000E22BEC939FBFE1E7F0E024914DEA50E088
:100AD000FA01649189E990E0FC0174917723C9F1EE
:100AE000222349F12330A1F038F42130B9F022302B
:100AF00011F534B53F7D14C02730A1F02830B1F096
:100B00002430C9F4309180003F7D3093800013C0C1
:100B1000209180002F77209380000DC034B53F775F
:100B200034BD09C03091B0003F7703C03091B000B0
:100B30003F7D3093B000E72FF0E0EE0FFF1FE45849
:100B4000FF4FA591B4913FB7F8942C91262B2C938D
:100B50003FBFFA014491FC018491882399F090E011
:100B6000880F991FFC01EA57FF4FA591B491FC0132
:100B7000E458FF4F859194919FB7F8948C91482B3E
:100B80004C939FBF10926302109262021092610216
:100B90001092600210925F0210925E0280E286BBA9
:100BA00080936F008BEA91E00E94120219A28E01DD
:100BB0000F5D1F4F20E835E240E050E08AE0882ECC
:100BC000912CA12CB12C7E01FDE1EF0EF11CCA018C
:100BD000B901A50194010E945506605DF801629378
:100BE0008F01EE15FF0599F7CF010E94120286E2F0
:100BF00091E00E94120201E08EE093E00E949401D5
:100C0000892B59F08EE093E00E94B6018093010198
:100C1000682F81E792E00E941B0181E792E00E9429
:100C2000E300892B09F181E792E00E94C1008093E3
:100C300001018A3021F08D3011F00E94CC018091A9
:100C40000001882331F080EC91E00E9412021092A2
:100C5000000110910101612F81E792E00E941B01C8
:100C60001A3011F4009300010E948A01C5CF88E177
:100C700091E090930F0380930E0380916F008B7F20
:100C800080936F0080916F008F7D80936F008091C3
:100C9000610280936202809160028111FCCF809199
:100CA0006F008D7F80936F000895A1E21A2EAA1B1A
:100CB000BB1BFD010DC0AA1FBB1FEE1FFF1FA2170C
:100CC000B307E407F50720F0A21BB30BE40BF50B09
:100CD000661F771F881F991F1A9469F76095709592
:100CE000809590959B01AC01BD01CF010895EE0F59
:100CF000FF1F0590F491E02D099481E090E0F894B5
:100D00000C94820610E0CDE5D0E004C0FE010E9404
:0E0D100077062196CE35D107C9F7F894FFCFAC
:100D1E000120000000001B018800B2006801E30002
:100D2E00C100D50000000000080288000F02030277
:100D3E009401B601A3010D0A00536B657463683A02
:100D4E00202020002F686F6D652F68616E64696BBF
:100D5E006F2F4A44592D30382D5265666C61736879
:100D6E002F41726475696E6F2D536B657463682FB6
:100D7E004A44592D30385F53657269616C5F496E14
:100D8E00746572666163652F4A44592D30385F531E
:100D9E00657269616C5F496E746572666163652E1A
:100DAE00696E6F0055706C6F616465643A20004423
:100DBE00656320323520323031380042547365720B
:100DCE0069616C20737461727465642061742000B3
:040DDE000D0A3E00BC
:00000001FF
